:020000040800F2
:10000000188C00203D0A0008A90A0008A90A000867
:10001000A90A0008A90A0008A90A000800000000AF
:10002000000000000000000000000000A90A000815
:10003000A90A000800000000A90A00089524000889
:10004000A90A0008A90A0008A90A0008A90A0008C4
:10005000A90A0008A90A0008A90A0008A90A0008B4
:10006000A90A0008A90A0008A90A0008A90A0008A4
:10007000A90A0008A90A0008A90A0008A90A000894
:10008000A90A0008A90A0008A90A0008A90A000884
:10009000A90A0008A90A0008A90A0008A90A000874
:1000A000A90A0008A90A0008A90A0008A90A000864
:1000B000853A0008992D0008A90A0008A90A000835
:1000C000A90A0008A90A0008A90A0008A90A000844
:1000D000A90A0008A90A0008A12400086528000848
:1000E00099310008A90A0008A90A0008A90A00080D
:1000F000A90A0008A90A0008A90A0008A90A000814
:10010000A90A0008A90A0008A90A0008A90A000803
:10011000A90A0008A90A0008A90A0008B52F0008C2
:10012000A90A0008A90A0008A90A0008A90A0008E3
:10013000A90A0008A90A0008A90A0008A90A0008D3
:10014000A90A0008A90A0008A90A0008A90A0008C3
:10015000A90A0008A90A0008A90A000899280008A5
:10016000A90A0008A90A0008A90A0008A90A0008A3
:10017000A90A0008A90A0008A90A0008A90A000893
:10018000A90A0008A90A000890B484B000AF034689
:100190000A46FB711346BB710023FB60BB7903F079
:1001A00003039B000F2202FA03F3FB601649BB799D
:1001B0009B08DBB21846144ABB799B08DBB20233BA
:1001C00052F82320FB68DB431A40831C41F82320AC
:1001D0000D48BB799B08DBB21C460B4ABB799B08D8
:1001E000DBB2023352F82320F979BB7903F0030321
:1001F0009B0001FA03F31A43A31C40F8232000BF1D
:100200001037BD4690BC70470038014080B485B0BF
:1002100000AF78604FF080435B6AFB6000BF4FF037
:1002200080435A6AFB689A42F9D04FF080435B6A78
:10023000FB607B68013B7B607B68002BEED100BFDD
:100240001437BD465DF8047B704700BF80B582B0AF
:1002500000AF03460A46FB711346BB7103F090FCE6
:1002600000F0A4F94AF6C870FFF7D0FF2A4ABB791C
:10027000D370294AFB791371274B00225A71264B00
:1002800000229A71244B00225A70BB79012B06D9A7
:10029000214B5B7843F00803DAB21F4B5A700320FE
:1002A00000F032F941F29410FFF7B0FF032000F0A4
:1002B0002BF941F29410FFF7A9FF032000F024F975
:1002C00041F29410FFF7A2FF022000F01DF9642014
:1002D000FFF79CFF104B5B7843F02003DBB218461E
:1002E00000F0DAF80C4B04221A7000F075F800F0F8
:1002F00015F8094B02229A70074B9B7843F00403D0
:10030000DBB2184600F0C8F841F29410FFF77EFF08
:1003100000BF0837BD4680BDF809002080B500AF9A
:10032000012000F0B9F840F6B830FFF76FFF00BFCA
:1003300080BD00BF80B582B000AF786042E0254B41
:100340005A79244B1B799A4210D3224B00225A71BE
:10035000204B9B790133DAB21E4B9A711D4B5A79AF
:100360001C4B9B791946104600F062F87B681B789D
:100370000A2B0ED1174B9B790133DAB2154B9A71C8
:10038000144B5A79134B9B791946104600F050F8DC
:1003900015E07B681B780D2B06D10E4B9B79194617
:1003A000002000F045F80AE07B681B78184600F052
:1003B0008FF8084B5B790133DAB2064B5A717B68D0
:1003C00001337B607B681B78002BB8D100BF0837F6
:1003D000BD4680BDF809002080B500AF084B1B78F2
:1003E00043F00403DAB2064B1A70054B1B7843F056
:1003F0000803DBB2184600F04FF800BF80BD00BF15
:10040000F809002080B500AF084B1B7843F00203C9
:10041000DAB2064B1A70054B1B7843F00803DBB2C7
:10042000184600F039F800BF80BD00BFF809002071
:1004300080B584B000AF03460A46FB711346BB711A
:10044000134A07F10C0310681860124BDB78BA7975
:100450009A4201D30023BB710E4AFB7953710D4AB6
:10046000BB799371BB7907F11002134413F8042C84
:10047000FB791344DBB25BB263F07F035BB2DBB2A8
:10048000184600F009F800BF1037BD4680BD00BF18
:10049000A0C40008F809002080B582B000AF034670
:1004A000FB710A4B4FF400725A83FB791B09DBB2D4
:1004B000184600F029F8FB7903F00F03DBB2184669
:1004C00000F022F800BF0837BD4680BD0010024092
:1004D00080B582B000AF0346FB710A4B4FF4007247
:1004E0001A83FB791B09DBB2184600F00DF8FB7983
:1004F00003F00F03DBB2184600F006F800BF083720
:10050000BD4680BD0010024080B582B000AF0346FA
:10051000FB71FB7903F00803002B04D0224B4FF44E
:1005200000421A8303E0204B4FF400425A83FB79C8
:1005300003F00403002B04D01B4B4FF480421A83BA
:1005400003E0194B4FF480425A83FB7903F0020316
:10055000002B04D0144B4FF400521A8303E0124BCB
:100560004FF400525A83FB7903F00103002B04D0AF
:100570000D4B4FF480521A8303E00B4B4FF4805223
:100580005A83094B4FF400621A831420FFF73EFE92
:10059000054B4FF400625A831420FFF737FE00BF6B
:1005A0000837BD4680BD00BF0010024080B582B054
:1005B00002AF0023019300230093002301224FF494
:1005C00000712A4804F04EFF00230193002300939A
:1005D000002301224FF40061244804F043FF00236C
:1005E000019300230093002301224FF480511F4800
:1005F00004F038FF0023019300230093002301221D
:100600004FF40051194804F02DFF002301930023FB
:100610000093002301224FF48041144804F022FF8C
:100620000023019300230093002301224FF4004193
:100630000E4804F017FF0D4B4FF400725A830B4B1A
:100640004FF400625A83094B4FF480525A83074B90
:100650004FF400525A83054B4FF480425A83034BA8
:100660004FF400425A8300BFBD4680BD00100240D7
:1006700080B58AB000AF7860396000237B620023C8
:100680003B620023FB610023BB617B681B8A9BB23A
:100690007B627B6A23F440537B623B68DB881A46AB
:1006A0007B6A13437B627B6A9AB27B681A827B689F
:1006B0009B899BB27B627B6A23F4B05323F00C03CB
:1006C0007B623B689A883B681B8913439AB23B68FC
:1006D0005B8913439BB21A467B6A13437B627B6A36
:1006E0009AB27B689A817B689B8A9BB27B627B6AA9
:1006F00023F440737B623B689B891A467B6A1343F1
:100700007B627B6A9AB27B689A8207F1080318467B
:1007100002F0BCFE7B68304A934203D07B682F4ACC
:10072000934202D17B693B6201E03B693B627B689B
:100730009B899BB21BB2002B0CDA3A6A13469B00D2
:1007400013449A001A443B681B685B00B2FBF3F346
:10075000FB610BE03A6A13469B0013449A001A446B
:100760003B681B689B00B2FBF3F3FB61FB691C4A0F
:10077000A2FB03235B091B017B627B6A1B096422CA
:1007800002FB03F3FA69D31ABB617B689B899BB2B6
:100790001BB2002B0CDABB69DB003233104AA2FB20
:1007A00003235B0903F007037A6A13437B620BE0C0
:1007B000BB691B0132330A4AA2FB03235B0903F026
:1007C0000F037A6A13437B627B6A9AB27B681A8151
:1007D00000BF2837BD4680BD001001400014014015
:1007E0001F85EB5180B483B000AF78600B46FB707F
:1007F000FB78002B08D07B689B899BB243F40053A5
:100800009AB27B689A8107E07B689B899BB223F44C
:1008100000539AB27B689A8100BF0C37BD465DF8E1
:10082000047B704780B483B000AF78600B467B8058
:100830007B88C3F308039AB27B689A8000BF0C37A9
:10084000BD465DF8047B704780B483B000AF78602C
:100850007B689B889BB2C3F308039BB218460C3796
:10086000BD465DF8047B704780B487B000AF786008
:100870000B467B8013467B7000233B610023FB60AB
:100880000023BB6000237B617B687B617B88DBB2DC
:100890005B09DBB23B617B8803F01F03FB60012235
:1008A000FB6802FA03F3BB603B69012B03D17B6950
:1008B0000C337B6109E03B69022B03D17B69103368
:1008C0007B6102E07B6914337B617B78002B06D06F
:1008D0007B697A691168BA680A431A6006E07B6925
:1008E0007A691168BA68D2430A401A6000BF1C379F
:1008F000BD465DF8047B704780B485B000AF78607A
:100900000B467B800023FB737B681B889AB27B8835
:1009100013409BB2002B02D00123FB7301E00023A4
:10092000FB73FB7B18461437BD465DF8047B7047AC
:1009300080B487B000AF78600B467B800023FB60FB
:1009400000237B610023BB600023FB747B88DBB248
:100950005B09DBB2BB607B8803F01F037B61012274
:100960007B6902FA03F37B61BB68012B07D17B68CB
:100970009B899BB21A467B6913407B6111E0BB687F
:10098000022B07D17B681B8A9BB21A467B691340F6
:100990007B6106E07B689B8A9BB21A467B691340A9
:1009A0007B617B881B0A9BB2FB600122FB6802FA19
:1009B00003F3FB607B681B889BB21A46FB681340FD
:1009C000FB607B69002B05D0FB68002B02D0012364
:1009D000FB7401E00023FB74FB7C18461C37BD460A
:1009E0005DF8047B704700BF80B400AF074B1B88E5
:1009F000002B05D0054B1B88013B9AB2034B1A8094
:100A000000BFBD465DF8047B704700BF000A0020B0
:100A100080B483B000AF0346FB80074AFB88138095
:100A200000BF054B1B88002BFBD100BF0C37BD4618
:100A30005DF8047B704700BF000A002080B582B0DB
:100A400000AF134B7B60134B3B6007E03B681A1D04
:100A50003A607A68111D796012681A603B680E4A24
:100A60009342F3D30D480E494FF000028842B8BFBD
:100A700040F8042BFADBDFF82C00016841F4700128
:100A8000016002F0E9FB00BF0837BD4680BD00BF32
:100A9000C8C9000800000020F8090020F80900205B
:100AA000180C002088ED00E080B400AFFEE700BF26
:100AB00080B483B000AF03463960FB7197F907300B
:100AC000002B0BDA0D49FB7903F00F03043B3A6866
:100AD000D2B21201D2B20B441A7609E0084997F952
:100AE00007303A68D2B21201D2B20B4483F8002325
:100AF00000BF0C37BD465DF8047B704700ED00E099
:100B000000E100E080B582B000AF78607B68B3F1AF
:100B1000807F01D3012311E00A4A7B6823F07F43E1
:100B2000013B53600F214FF0FF30FFF7C1FF054B32
:100B300000229A60034B07221A60002318460837E8
:100B4000BD4680BD10E000E080B582B000AF00235C
:100B5000FB7114E00023BB710BE0FA79BB791146FD
:100B60001846FFF765FC0948FFF7E4FBBB79013342
:100B7000BB71BB790F2BF0D9FB790133FB71FB798A
:100B8000012BE7D900BF0837BD4680BDA4C40008CB
:100B9000B0B58CB000AF00237B844FF00003FB6244
:100BA0004B23FB614FF48173BB613D21704803F01F
:100BB000F3FB0346002B05D16E496F4803F0C0FAE2
:100BC0000023C5E03B1D184603F034FC7B791AB2C4
:100BD0003B791B021BB213431BB2FB827B7A1AB216
:100BE0003B7A1B021BB213431BB2BB82FB791AB2C6
:100BF000BB791B021BB213431BB27B82B7F91630C1
:100C0000002B06DAFB8ADB43FB82FB8ADB43BB62F9
:100C100001E0FB8ABB62B7F91430002B06DABB8A0D
:100C2000DB43BB82BB8ADB437B6201E0BB8A7B6226
:100C3000B7F91230002B06DA7B8ADB437B827B8A92
:100C4000DB43FB6001E07B8AFB60BA6AFB6913440B
:100C5000BB627A6ABB6913447B62786A06F096FFCE
:100C600004460D46B86A06F091FF02460B4643EC77
:100C7000112B45EC104B05F0E9F954EC103B1846EC
:100C8000214607F0E1FA0346FB62F86A06F090FF9E
:100C900031A3D3E9002306F02BFE03460C46184689
:100CA000214607F0D1FA0346FB62344BD3ED007ABC
:100CB00097ED0B7A77EE677AC7ED0B7AD7ED0B7A63
:100CC000F5EEC07AF1EE10FA0FD5F86A06F070FF73
:100CD00023A3D3E9002306F00DFE03460C46184675
:100CE000214607F0B1FA0346FB62F86A06F060FF9E
:100CF0001BA3D3E9002307F03FFA0346002B0FD0D4
:100D0000F86A06F055FF16A3D3E9002306F0F0FDBC
:100D100003460C461846214607F096FA0346FB6246
:100D2000D7ED0B7A9FED167A67EE877A17EE900A69
:100D300006F03EFF0CA3D3E9002307F0B7F8034603
:100D40000C461846214607F05FFA03467B847B8CED
:100D500018463037BD46B0BDC5B0174F63C0D33F4E
:100D6000182D4454FB211940182D4454FB210940EF
:100D700000580040A8C400080044004010000020B3
:100D8000000034430000000090B599B000AF7861D6
:100D9000396187ED030AC7ED020A87ED011AF86889
:100DA00006F006FF03460C469FEDB71B44EC103BD4
:100DB00005F04EF954EC103B1846214607F044FA72
:100DC0000346FB65B86806F0F3FE03460C469FED4C
:100DD000AE1B44EC103B05F03BF954EC103B1846BD
:100DE000214607F031FA0346BB65786806F0E0FE5D
:100DF00003460C469FEDA41B44EC103B05F028F97C
:100E000054EC103B1846214607F01EFA03467B655A
:100E10009F4B1B683B659F4B1B68FB649E4B1B688D
:100E2000BB64386D06F0C4FE03460C469FED961B6E
:100E300044EC103B05F00CF954EC103B18462146ED
:100E400007F002FA03467B64F86C06F0B1FE034635
:100E50000C469FED8D1B44EC103B05F0F9F854EC6B
:100E6000103B1846214607F0EFF903463B64B86C87
:100E700006F09EFE03460C469FED831B44EC103BA0
:100E800005F0E6F854EC103B1846214607F0DCF973
:100E90000346FB63814B1B68BB63814B1B687B6311
:100EA000804B1B683B63B86B06F082FE03460C4622
:100EB0009FED751B44EC103B05F0CAF854EC103B59
:100EC0001846214607F0C0F90346FB62786B06F02E
:100ED0006FFE03460C469FED6C1B44EC103B05F087
:100EE000B7F854EC103B1846214607F0ADF903461D
:100EF000BB62386B06F05CFE03460C469FED621B3E
:100F000044EC103B05F0A4F854EC103B1846214685
:100F100007F09AF903467B6297ED177AD7ED167AB8
:100F200037EE677AD7ED107A37EE277AD7ED117A58
:100F300037EE677AD7ED0A7A37EE277AD7ED0B7A54
:100F400037EE677AD7ED0C6AD7ED0D7A76EEE77A51
:100F500077EEA77A27EE277AD7ED166AD7ED157ABE
:100F600076EEE76AD7ED0F7A76EEA76AD7ED107ABC
:100F700076EEE76AD7ED097A76EEA76AD7ED0A7AB8
:100F800076EEE76A97ED0D6AD7ED0E7A76EE677A20
:100F900077EEA77A66EEA77A77EE677AC7ED087ADA
:100FA00097ED137AD7ED127A77EE677A37EEA77A54
:100FB000D7ED0D6AD7ED0E7A76EEE77A77EEA77A5F
:100FC00027EE277AD7ED146AD7ED137A76EEE77A13
:100FD00077EEA76A97ED0C6AD7ED0D7A76EE677A11
:100FE00077EEA77A66EEA77A77EE677AC7ED077A8B
:100FF000D7ED086A97ED077AC6EE877AC7ED067ACD
:101000007B69BA691A6097ED177AD7ED167A37EED1
:10101000677AD7ED107A37EE277AD7ED117A37EE67
:10102000677AD7ED0A7A37EE277AD7ED0B7A37EE63
:10103000677AD7ED067A77EEA76A97ED146AD7ED4F
:10104000137A76EE677A66EEA77A77EE277AC7ED9F
:10105000087A97ED0D7AD7ED0E7A77EE677A77EE0C
:10106000A77AC7ED077AD7ED086A97ED077AC6EE3B
:10107000877AC7ED067A3B69BA691A6000BF6437A0
:10108000BD4690BDAFF300800000000000000040AE
:101090001400002018000020A40A0020A00A00204C
:1010A0001C0000202000002090B58BB000AFB9607C
:1010B0007A603B600346FB737A68BB68D31AFB61B6
:1010C000BB68B3F5877F2ADBBB68B3F5B47F26DA4C
:1010D0007B68002B23DB7B685A2B20DCFB6903F544
:1010E000B473BA6B02FB03F37B62FB6903F5B47262
:1010F000B34B1B681344FA6B02FB03F3184606F06C
:1011000045FDADA3D3E9002306F0A6FD03460C463A
:101110001846214607F050F803463B624AE0BB6898
:10112000002B2BDBBB685A2B28DC7B68B3F5877F51
:1011300024DB7B68B3F5B47F20DAFB69A3F5B473D5
:10114000BA6B02FB03F37B629D4B1A68FB69134485
:10115000A3F5B473FA6B02FB03F3184606F016FD11
:1011600095A3D3E9002306F077FD03460C46184605
:10117000214607F021F803463B621BE0BB6BFA698E
:1011800002FB03F37B628E4B1A68FB691344FA6B14
:1011900002FB03F3184606F0F9FC87A3D3E900230A
:1011A00006F05AFD03460C461846214607F004F89F
:1011B00003463B627A6A3B6A1344BB61804AFB691F
:1011C00013603A68BB6913447B613A68BB69D31A00
:1011D0003B60BB693B61FB7B012B67D13B68002B0C
:1011E00005DD3A680121012003F052FB13E03B6862
:1011F000002B08DA3B685B423B603A680221012021
:1012000003F046FB07E03B68002B04D13A6800215D
:10121000012003F03DFB7B69002B05DD7A6901218C
:10122000032003F035FB13E07B69002B08DA7B69B0
:101230005B427B617A690221032003F029FB07E00E
:101240007B69002B04D17A690021032003F020FB85
:101250003B69002B0ADD3A690121022003F018FBEB
:101260003A690221042003F013FB7FE13B69002B64
:101270000DDA3B695B423B613A690221022003F0CF
:1012800007FB3A690121042003F002FB6EE13B6990
:10129000002B40F06B813A690021022003F0F8FA3C
:1012A0003A690021042003F0F3FA5FE1FB7B032B92
:1012B00067D13B68002B05DD3A680221032003F06B
:1012C000E7FA13E03B68002B08DA3B685B423B60BF
:1012D0003A680121032003F0DBFA07E03B68002BAA
:1012E00004D13A680021032003F0D2FA7B69002B75
:1012F00005DD7A690221012003F0CAFA13E07B6957
:10130000002B08DA7B695B427B617A69012101204D
:1013100003F0BEFA07E07B69002B04D17A69002153
:10132000012003F0B5FA3B69002B0ADD3A6901217F
:10133000022003F0ADFA3A690221042003F0A8FA72
:1013400014E13B69002B0DDA3B695B423B613A6972
:101350000221022003F09CFA3A690121042003F0E3
:1013600097FA03E13B69002B40F000813A690021C4
:10137000022003F08DFA3A690021042003F088FA74
:10138000F4E0FB7B022B70D13B68002B05DD3A6853
:101390000221022003F07CFA1CE03B68002B11DAEA
:1013A0003B685B423B603A680121022003F070FA1F
:1013B00010E000BFAFF300807B14AE47E17A843FBA
:1013C0007C0A00203B68002B04D13A6800210220EF
:1013D00003F05EFA7B69002B05DD7A6902210420A7
:1013E00003F056FA13E07B69002B08DA7B695B4255
:1013F0007B617A690121042003F04AFA07E07B69E6
:10140000002B04D17A690021042003F041FA3B69E2
:10141000002B0ADD3A690221012003F039FA3A690A
:101420000121032003F034FAA0E03B69002B0DDA20
:101430003B695B423B613A690121012003F028FAD4
:101440003A690221032003F023FA8FE03B69002B65
:1014500040F08C803A690021012003F019FA3A69C2
:101460000021032003F014FA80E0FB7B042B66D1FB
:101470003B68002B05DD3A680121042003F008FADF
:1014800013E03B68002B08DA3B685B423B603A683C
:101490000221042003F0FCF907E03B68002B04D193
:1014A0003A680021042003F0F3F97B69002B05DD85
:1014B0007A690121022003F0EBF913E07B69002B2C
:1014C00008DA7B695B427B617A690221022003F0C2
:1014D000DFF907E07B69002B04D17A690021022043
:1014E00003F0D6F93B69002B0ADD3A69022101209D
:1014F00003F0CEF93A690121032003F0C9F935E080
:101500003B69002B0DDA3B695B423B613A69012183
:10151000012003F0BDF93A690221032003F0B8F974
:1015200024E03B69002B21D13A690021012003F01E
:10153000AFF93A690021032003F0AAF916E0FB7B1A
:10154000002B13D100220021012003F0A1F9002279
:101550000021032003F09CF900220021022003F067
:1015600097F900220021042003F092F900BF2C37E4
:10157000BD4690BD00000000B0B586B000AF87ED5D
:10158000030AC7ED020A87ED011AC7ED001A4FF0F2
:1015900000037B6100237B8297ED037AD7ED017A0C
:1015A00077EE677A17EE900A06F002FB04460D46C6
:1015B00097ED027AD7ED007A77EE677A17EE900A08
:1015C00006F0F6FA02460B4643EC112B45EC104BA5
:1015D00004F03CFD54EC103B1846214606F034FE66
:1015E00003467B61D7ED057AF5EEC07AF1EE10FA8D
:1015F0000FD5786906F0DCFA24A3D3E9002306F0BE
:1016000079F903460C461846214606F01DFE0346AE
:101610007B61786906F0CCFA1CA3D3E9002306F0BD
:10162000ABFD0346002B0FD0786906F0C1FA17A373
:10163000D3E9002306F05CF903460C461846214620
:1016400006F002FE03467B61D7ED057A9FED0E7A28
:1016500067EE877A17EE900A06F0AAFA08A3D3E994
:10166000002306F023FC03460C461846214606F0EC
:10167000CBFD03467B827B8A18461837BD46B0BD3A
:10168000182D4454FB21094000003443182D4454C4
:10169000FB21194000000000B0B584B000AF87ED19
:1016A000030AC7ED020A87ED011AC7ED001A97ED8C
:1016B000027AD7ED007A77EE677A17EE900A06F095
:1016C00077FA03460C469FED1C1B44EC103B04F0DC
:1016D000BFFC55EC104B97ED037AD7ED017A77EE0E
:1016E000677A17EE900A06F063FA02460B469FED02
:1016F000121B43EC102B04F0ABFC53EC102B2046D8
:10170000294606F0F7F803460C4644EC173BB0EECA
:10171000470AF0EE670A04F037FE54EC103B184617
:10172000214606F091FD034607EE903AB0EE670AB7
:101730001037BD46B0BD00BF0000000000000040F3
:1017400080B58CB000AFF86087ED020A79603A602E
:101750007B681B68BB61B86806F02AFAAAA3D3E9C4
:10176000002306F0EBFC0346002B03D03B6800226D
:101770001A7045E1FB68FB62FB6A5A33BB62BB6AC5
:10178000B3F5B47F03DBBB6AA3F5B473BB62BB6A7A
:101790005A337B627B6AB3F5B47F03DB7B6AA3F5C4
:1017A000B4737B627B6A5A333B623B6AB3F5B47FA6
:1017B00003DB3B6AA3F5B4733B62FB6AB3F5877F37
:1017C00010DBFB6AB3F5B47F0CDABB69002B09DBD5
:1017D000BB695A2B06DCFB6AC3F5B472BB691344C0
:1017E000FB6218E0FB6A002B11DBFB6A5A2B0EDC54
:1017F000BB69B3F5877F0ADDBB69B3F5B47F06DA51
:10180000FB6A03F5B472BB69D31AFB6203E0FA6AA0
:10181000BB69D31AFB62BB6AB3F5877F10DBBB6A77
:10182000B3F5B47F0CDABB69002B09DBBB695A2B1B
:1018300006DCBB6AC3F5B472BB691344BB6218E033
:10184000BB6A002B11DBBB6A5A2B0EDCBB69B3F5FC
:10185000877F0ADBBB69B3F5B47F06DABB6A03F5A1
:10186000B472BB69D31ABB6203E0BA6ABB69D31A0C
:10187000BB627B6AB3F5877F10DB7B6AB3F5B47F0D
:101880000CDABB69002B09DBBB695A2B06DC7B6ACF
:10189000C3F5B472BB6913447B6218E07B6A002B0A
:1018A00011DB7B6A5A2B0EDCBB69B3F5877F0ADB41
:1018B000BB69B3F5B47F06DA7B6A03F5B472BB6922
:1018C000D31A7B6203E07A6ABB69D31A7B623B6AF4
:1018D000B3F5877F10DB3B6AB3F5B47F0CDABB69E5
:1018E000002B09DBBB695A2B06DC3B6AC3F5B472DB
:1018F000BB6913443B6218E03B6A002B11DB3B6A77
:101900005A2B0EDCBB69B3F5877F0ADBBB69B3F5E5
:10191000B47F06DA3B6A03F5B472BB69D31A3B6243
:1019200003E03A6ABB69D31A3B62FB6A002BB8BF7B
:101930005B42FB62BB6A002BB8BF5B42BB627B6A47
:10194000002BB8BF5B427B623B6A002BB8BF5B4297
:101950003B62FB6AFB610123FB753B6801221A7045
:10196000BA6AFB699A4215DABB6AFB613B680222DC
:101970001A700223FB75BB69A3F15A027B681A60D7
:101980007B681B68002B05DA7B681B6803F5B47263
:101990007B681A607A6AFB699A4216DA7B6AFB6195
:1019A0003B6803221A700323FB75BB6903F1B40281
:1019B0007B681A607B681B68B3F5B47F05DB7B68C6
:1019C0001B68A3F5B4727B681A603A6AFB699A4295
:1019D00016DA3B6AFB613B6804221A700423FB752C
:1019E000BB6903F15A027B681A607B681B68B3F518
:1019F000B47F05DB7B681B68A3F5B4727B681A6053
:101A000000BF3037BD4680BD9A9999999999B93FE1
:101A1000B0B588B000AF0021774804F033F800215A
:101A2000764804F02FF8002240F225517448FEF762
:101A30001BFF3220FEF7ECFFFFF786F84FF00003A4
:101A40007B614B233B614FF48173FB603D216D480B
:101A500002F0A2FC0346002B04D16B496B4802F054
:101A60006FFBC1E03B46184602F0E4FC7B781AB2FB
:101A70003B781B021BB213431BB27B817B791AB2EA
:101A80003B791B021BB213431BB23B81B7F90A30EF
:101A9000002B06DA7B89DB437B817B89DB43FB619F
:101AA00001E07B89FB61B7F90830002B06DA3B893E
:101AB000DB433B813B89DB43BB6101E03B89BB618D
:101AC000FA693B691344FB61BA69FB681344BB6163
:101AD000B86906F05BF804460D46F86906F056F85A
:101AE00002460B4643EC112B45EC104B04F0AEFACA
:101AF00054EC103B1846214606F0A6FB03467B61DA
:101B0000786906F055F83AA3D3E9002305F0F0FE12
:101B100003460C461846214606F096FB03467B61B9
:101B2000786906F045F803460C461A4623463849BC
:101B3000384806F0ADFE3749374802F001FB374A16
:101B40007B69136000210020FEF772FC3448FEF729
:101B5000F1FB324B1B68184606F02AF803460C4688
:101B60001A4623462F49304806F092FE01210020F4
:101B7000FEF75EFC2C48FEF7DDFB01212B4802F04E
:101B8000FDF80346002B7FF459AF6420FEF740FFB9
:101B900000BF0121254802F0F1F80346002BF8D0E0
:101BA0006420FEF735FF1D4B1B68214A1360FEF7CA
:101BB000CBFF00210020FEF73BFC1E48FEF7BAFBDE
:101BC00040F2DC50FEF724FFFEF7BEFF01210A4879
:101BD00003F058FF0121094803F054FF012240F2AD
:101BE00025510748FEF740FE2037BD46B0BD00BF77
:101BF000C5B0174F63C0D33F00140040000400403D
:101C00000014014000580040A8C4000800440040EF
:101C1000BCC40008840B002000480040680B002072
:101C2000C8C40008D4C400082C0B002000080240DF
:101C300010000020E4C40008F0B585B002AF012315
:101C4000FB710123BB7100218F4803F01BFF0021B2
:101C50008E4803F017FF002240F225518C48FEF712
:101C600003FEFEF771FF00210020FEF7E1FB89482B
:101C7000FEF760FB40F2DC50FEF7CAFEFEF764FFA1
:101C8000FB79012B40F0AF80BB79012B44D10421BB
:101C9000814802F073F80346002B12D17F4B1B687A
:101CA000184605F085FF76A3D3E9002305F022FE50
:101CB00003460C461846214606F0C6FA0246774B04
:101CC0001A600221744802F059F80346002B12D121
:101CD000724B1B68184605F06BFF69A3D3E900231C
:101CE00005F006FE03460C461846214606F0ACFAFF
:101CF00002466A4B1A600821674802F03FF8034623
:101D0000002B01D10223BB7101210020FEF790FBC3
:101D10006348FEF70FFB48E0BB79022B45D1042155
:101D20005D4802F02BF80346002B12D15D4B1B6877
:101D3000184605F03DFF52A3D3E9002305F0DAFD74
:101D400003460C461846214606F07EFA0246554BDD
:101D50001A600221504802F011F80346002B12D1FC
:101D6000504B1B68184605F023FF45A3D3E9002319
:101D700005F0BEFD03460C461846214606F064FAFF
:101D80000246484B1A600821434801F0F7FF03461A
:101D9000002B03D10223FB710123BB710121002021
:101DA000FEF746FB4048FEF7C5FA3C4B1B68184659
:101DB00005F0FEFE05460E463A4B1B68184605F038
:101DC000F7FE03460C46CDE900342A463346374930
:101DD000374806F05DFD00210020FEF729FB34485E
:101DE000FEF7A8FA81E1FB79022B40F0CC80BB79A9
:101DF000012B61D10421284801F0C0FF0346002BCC
:101E000012D12C4B1B68184605F0D2FE1CA3D3E957
:101E1000002305F06FFD03460C461846214606F0E8
:101E200013FA0246234B1A6002211B4801F0A6FF59
:101E30000346002B12D11F4B1B68184605F0B8FE55
:101E40000FA3D3E9002305F053FD03460C461846C3
:101E5000214606F0F9F90246164B1A6008210E4891
:101E600001F08CFF0346002B01D10223BB7101213D
:101E70000020FEF7DDFA0A48FEF75CFA65E000BFD5
:101E80009A9999999999B93F00140040000400402B
:101E900000140140F4C400080008024014000020AF
:101EA00004C50008A00A002010C500081CC50008D1
:101EB0002C0B002018000020BB79022B45D10421F7
:101EC000A94801F05BFF0346002B12D1A74B1B680A
:101ED000184605F06DFEA2A3D3E9002305F00AFD24
:101EE00003460C461846214606F0AEF902469F4BC3
:101EF0001A6002219C4801F041FF0346002B12D1D9
:101F00009A4B1B68184605F053FE95A3D3E90023AE
:101F100005F0EEFC03460C461846214606F094F9FF
:101F20000246924B1A6008218F4801F027FF0346B2
:101F3000002B03D10323FB710123BB71012100207E
:101F4000FEF776FA8A48FEF7F5F98A4B1B681846C1
:101F500005F02EFE05460E46844B1B68184605F01C
:101F600027FE03460C46CDE900342A463346824913
:101F7000824806F08DFC00210020FEF759FA7F48C8
:101F8000FEF7D8F9B1E0FB79032B40F0AE80BB79C6
:101F9000012B44D10421744801F0F0FE0346002BCC
:101FA00012D1774B1B68184605F002FE6CA3D3E9EB
:101FB000002305F09FFC03460C461846214606F018
:101FC00043F902466E4B1A600221674801F0D6FEC3
:101FD0000346002B12D16A4B1B68184605F0E8FD3A
:101FE0005FA3D3E9002305F083FC03460C461846A3
:101FF000214606F029F90246614B1A6008215A4829
:1020000001F0BCFE0346002B01D10223BB7101216C
:102010000020FEF70DFA5B48FEF78CF948E0BB792B
:10202000022B45D10421504801F0A8FE0346002BA5
:1020300012D1554B1B68184605F0BAFD48A3D3E9E9
:10204000002305F057FC03460C461846214606F0CF
:10205000FBF802464C4B1A600221434801F08EFE09
:102060000346002B12D1484B1B68184605F0A0FD13
:102070003BA3D3E9002305F03BFC03460C4618467E
:10208000214606F0E1F802463F4B1A600821364827
:1020900001F074FE0346002B03D10123FB710123E1
:1020A000BB7101210020FEF7C3F93148FEF742F968
:1020B000334B1B68184605F07BFD05460E46324B38
:1020C0001B68184605F074FD03460C46CDE9003444
:1020D0002A4633462D49294806F0DAFB0021002024
:1020E000FEF7A6F92548FEF725F901211E4801F063
:1020F00045FE0346002B28D16420FEF789FC00BF73
:102100000121194801F03AFE0346002BF8D0FEF7F2
:102110001BFD00210020FEF78BF91D48FEF70AF990
:1021200040F2DC50FEF774FCFEF70EFD0121194869
:1021300003F0A8FC0121184803F0A4FC012240F29E
:1021400025511648FEF790FB03E0C820FEF760FC1F
:1021500096E500BF0C37BD46F0BD00BFAFF3008071
:102160009A9999999999B93F000802401C0000205A
:1021700010C500081800002030C500082C0B0020F6
:10218000A40A002004C500082000002044C500085F
:1021900058C500080014004000040040001401402D
:1021A000F0B587B002AF0123FB730123BB73A84BCB
:1021B0001B68BB60A74B1B687B600021A64803F02F
:1021C00061FC0021A54803F05DFC002240F225518E
:1021D000A348FEF749FBFEF7B7FC00210020FEF7FD
:1021E00027F9A048FEF7A6F840F2DC50FEF710FCF5
:1021F000FEF7AAFCFB7B012B40F09F80BB7B012BF1
:102200003ED10421984801F0B9FD0346002B0FD1BF
:10221000B86805F0CDFC8CA3D3E9002305F06AFB78
:1022200003460C461846214606F00EF80346BB60EE
:1022300002218D4801F0A2FD0346002B0FD1B868A2
:1022400005F0B6FC80A3D3E9002305F051FB03465B
:102250000C461846214605F0F7FF0346BB600821EF
:10226000814801F08BFD0346002B01D10223BB7393
:1022700001210020FEF7DCF87C48FEF75BF842E025
:10228000BB7B022B3FD10421774801F077FD034649
:10229000002B0FD1786805F08BFC6BA3D3E90023EA
:1022A00005F028FB03460C461846214605F0CCFFF6
:1022B00003467B6002216C4801F060FD0346002B61
:1022C0000FD1786805F074FC5FA3D3E9002305F013
:1022D0000FFB03460C461846214605F0B5FF0346A2
:1022E0007B600821604801F049FD0346002B03D1C3
:1022F0000223FB730123BB7301210020FEF798F832
:102300005B48FEF717F8B86805F052FC05460E4624
:10231000786805F04DFC03460C46CDE900342A46AA
:1023200033465449544806F0B3FA00210020FEF722
:102330007FF85148FDF7FEFF7CE0FB7B022B35D197
:102340000421494801F01AFD0346002B2ED16420D8
:10235000FEF75EFB00BF0121434801F00FFD03467D
:10236000002BF8D0454ABB681360454A7B68136070
:10237000FEF7EAFB00210020FEF75AF84148FDF77E
:10238000D9FF40F2DC50FEF743FBFEF7DDFB0121F5
:10239000314803F077FB0121304803F073FB012241
:1023A00040F225512E48FEF75FFA47E0FB7B022BF7
:1023B0002FD102212C4801F0E1FC0346002B28D14B
:1023C0006420FEF725FB00BF0121274801F0D6FC61
:1023D0000346002BF8D0FEF7B7FB00210020FEF7E4
:1023E00027F82948FDF7A6FF40F2DC50FEF710FB66
:1023F000FEF7AAFB0121184803F044FB012117480E
:1024000003F040FB012240F225511548FEF72CFA5B
:1024100014E0FB7B022B0DD100210020FEF708F811
:102420001A48FDF787FF01210020FEF701F8184840
:10243000FDF780FFC820FEF7EBFADBE600BF14379C
:10244000BD46F0BDAFF300809A9999999999B93F2B
:10245000400A0020440A002000140040000400400C
:102460000014014068C500080008024004C50008C7
:1024700010C5000874C500082C0B0020840A002039
:10248000880A002084C5000890C500089CC5000883
:10249000A8C5000880B500AFFEF7A6FA00BF80BD52
:1024A000B0B500AF40F22551A948FEF741FA034606
:1024B000002B00F0C281A648FEF7C6F90346772B31
:1024C00003D1A44B01221A7026E0A148FEF7BCF903
:1024D0000346642B03D1A04B03221A601CE09C48E6
:1024E000FEF7B2F90346652B03D19B4B00221A601D
:1024F00012E09748FEF7A8F90346612B03D1964BEB
:1025000004221A6008E09248FEF79EF90346732BF6
:1025100002D1904B00221A708D48FEF795F90346C0
:10252000232B11D08A48FEF78FF90346242B0BD0BA
:102530008748FEF789F90346212B05D08448FEF72A
:1025400083F90346402B2FD1844B00221A60844B21
:1025500004221A60834B00221A607D48FEF774F94A
:102560000346232B03D1804B01221A701CE07848CC
:10257000FEF76AF90346242B03D17B4B02221A7023
:1025800012E07348FEF760F90346212B03D1764B26
:1025900003221A7008E06E48FEF756F90346402BF6
:1025A00002D1714B04221A706F4B1B78002B00F084
:1025B00044816748FEF748F903462F2B05D9644844
:1025C000FEF742F90346392B0BD96148FEF73CF977
:1025D0000346202B05D05E48FEF736F903462D2B27
:1025E00055D15B48FEF730F903462D2B06D15F4BE2
:1025F00000221A705E4B01221A7009E05448FEF75F
:1026000023F90346DBB203F00F03DAB2574B1A701B
:10261000564B1B78184605F0B9FA04460D46504B48
:102620001B68184605F0B2FA02460B4643EC112B24
:102630009FED450B03F00CFD53EC102B2046294673
:1026400005F00AFB03460C4625461C46454B1B6815
:10265000184605F09BFA22462B4605F04BF9034637
:102660000C461846214605F0A7FD02463D4B1A6070
:102670003B4B1B68013B3A4A13603B4B1B78032BD7
:102680002DD13A4B1B781A46364B1A6027E030485A
:10269000FEF7DAF80346232B21D02D48FEF7D4F8B5
:1026A0000346242B1BD02A48FEF7CEF80346212BE5
:1026B00015D02748FEF7C8F80346402B0FD0244812
:1026C000FEF7C2F80346262B09D0244B00221A60DD
:1026D000254B00221A7027491D4801F031FD1C4886
:1026E000FEF7B2F80346262B4AD11F4B1B78012B6D
:1026F00046D11A4B00221A601B4B00221A70194B4C
:102700001B68184605F042FA4FF000021A4B05F01C
:10271000CDFB03460C461846214605F095FD0246C2
:10272000164B1A60124B1B78012B07D1134BD3EDBC
:10273000007AF1EE677A114BC3ED007A0C4B002260
:102740001A707AE0AFF3008000000000000024401F
:1027500000440040900A0020800A0020600A002007
:102760005C0A0020580A0020650A00206C0B00203B
:10277000640A0020B8C5000800005940840A0020FF
:102780002F48FEF761F80346262B2CD12D4B1B78E2
:10279000022B28D12C4B00221A602A4B00221A70DF
:1027A0002A4B1B68184605F0F1F94FF00002284B40
:1027B00005F07CFB03460C461846214605F044FD17
:1027C0000246244B1A60244B1B78012B07D1214B66
:1027D000D3ED007AF1EE677A1E4BC3ED007A1E4B03
:1027E00000221A7029E01648FEF72EF80346262B21
:1027F0000ED1144B1B78032B0AD1134B00221A6005
:10280000104B00221A70114B1B68144A136014E01D
:102810000B48FEF719F80346262B0ED1094B1B78FF
:10282000042B0AD1084B00221A60064B00221A70B2
:10283000064B1B680A4A1360FFE700BFB0BD00BF2C
:1028400000440040650A0020600A0020580A002069
:1028500000005940880A0020640A0020800A0020F5
:102860000C00002080B500AF40F225510848FEF76B
:102870005FF80346002B09D00548FDF7E5FF034646
:10288000612B03D174210248FDF7CCFF00BF80BD4E
:1028900000480040000000002DE9F04385B004AF7F
:1028A00040F225518A48FEF743F80346002B00F01A
:1028B0005382884B00221A708548FDF7C5FF0346F6
:1028C000232B17D08248FDF7BFFF0346242B11D0DE
:1028D0007F48FDF7B9FF0346212B0BD07C48FDF75D
:1028E000B3FF0346402B05D07948FDF7ADFF034603
:1028F0005E2B34D1784B00221A60784B04221A6088
:10290000774B00221A607248FDF79EFF0346232B87
:1029100003D1744B01221A706AE06D48FDF794FFF1
:102920000346242B03D16F4B02221A7060E06848E3
:10293000FDF78AFF0346212B03D16A4B03221A704D
:1029400056E06348FDF780FF0346402B03D1654BFB
:1029500004221A704CE0634B05221A7048E05C4870
:10296000FDF772FF03462A2B42D15F4B1B681846C6
:1029700005F01EF9804689465C4B1B68184605F039
:1029800017F904460D465A4B1B68184605F010F916
:1029900002460B46CDE90223CDE9004542464B46AF
:1029A0005449554805F074FF00210020FDF740FD13
:1029B0005148FDF7BFFC514B1B68184605F0F8F86D
:1029C00005460E464E4B1B68184605F0F1F80346C7
:1029D0000C46CDE900342A4633464A49464805F0BC
:1029E00057FF01210020FDF723FD4348FDF7A2FC1E
:1029F0003C4B1B78002B00F0AF813548FDF724FFDE
:102A000003462F2B05D93248FDF71EFF0346392B0D
:102A10000BD92F48FDF718FF0346202B05D02C4873
:102A2000FDF712FF03462D2B72D12948FDF70CFF4D
:102A300003462D2B06D1344B00221A70334B012252
:102A40001A7009E02248FDF7FFFE0346DBB203F0EF
:102A50000F03DAB22C4B1A702B4B1B78184605F07B
:102A600095F804460D461D4B1B68184605F08EF878
:102A700002460B4643EC112B9FED130B03F0E8FAD3
:102A800053EC102B2046294605F0E6F803460C4689
:102A900025461C46124B1B68184605F077F822465F
:102AA0002B4604F027FF03460C461846214605F046
:102AB00083FB02460A4B1A60084B1B68013B074A1E
:102AC000136059E0AFF300800000000000002440D4
:102AD0000014014008000020500A00204C0A002089
:102AE000480A0020550A0020340A0020380A002035
:102AF0003C0A0020C4C500082C0B0020400A00201E
:102B0000440A0020D8C500086D0B0020540A00209C
:102B10009448FDF799FE0346232B2DD09148FDF7ED
:102B200093FE0346242B27D08E48FDF78DFE0346E7
:102B3000262B21D08B48FDF787FE0346212B1BD087
:102B40008848FDF781FE0346402B15D08548FDF7E8
:102B50007BFE03465E2B0FD08248FDF775FE0346D1
:102B60002A2B09D0804B00221A60804B00221A7059
:102B70007F497C4801F0E4FA7A48FDF765FE034698
:102B8000262B2CD1794B1B78012B28D1764B002298
:102B90001A60764B00221A70764B1B68184604F0B8
:102BA000F5FF4FF00002744B05F080F903460C4628
:102BB0001846214605F048FB0246704B1A60704BE0
:102BC0001B78012B07D16D4BD3ED007AF1EE677ABC
:102BD0006A4BC3ED007A6A4B00221A70BCE0614870
:102BE000FDF732FE0346262B2CD1604B1B78022BBF
:102BF00028D15D4B00221A605C4B00221A705D4B9D
:102C00001B68184604F0C2FF4FF000025A4B05F053
:102C10004DF903460C461846214605F015FB0246C1
:102C2000584B1A60564B1B78012B07D1554BD3EDEF
:102C3000007AF1EE677A534BC3ED007A504B0022D5
:102C40001A7089E04748FDF7FFFD0346262B27D180
:102C5000464B1B78032B23D1434B00221A60434B76
:102C600000221A70434B1B68184604F08FFF4FF088
:102C70000002414B05F01AF903460C46184621465E
:102C800005F0E2FA0246404B1A603D4B1B78012BDF
:102C900002D13D4B3D4A1A60394B00221A705BE06D
:102CA0003048FDF7D1FD0346262B27D12F4B1B784B
:102CB000042B23D12C4B00221A602C4B00221A70BB
:102CC0002C4B1B68184604F061FF4FF000022A4BA2
:102CD00005F0ECF803460C461846214605F0B4FA18
:102CE00002462B4B1A60264B1B78012B02D1284B36
:102CF000264A1A60224B00221A702DE01948FDF76F
:102D0000A3FD0346262B27D1184B1B78052B23D177
:102D1000154B00221A60154B00221A70154B1B68C8
:102D2000184604F033FF4FF00002134B05F0BEF8D5
:102D300003460C461846214605F086FA0246154B16
:102D40001A600F4B1B78012B02D1124B0F4A1A60ED
:102D50000B4B00221A70FFE700BF0437BD46BDE8E9
:102D6000F08300BF00140140500A0020550A0020E3
:102D7000B8C50008480A0020000059402C0A00206D
:102D8000540A0020300A0020340A0020000080BFCE
:102D9000380A00203C0A00202DE9F04F93B00CAF18
:102DA00001216F4803F016F90346002B00F0D38091
:102DB00001216B4803F038F9FDF7EAFE03461A4695
:102DC000684B1A60684BB4221A60684B1B68684AEB
:102DD0001360684BD3ED007A674B93ED007A674B35
:102DE000D3ED006AB0EE661AF0EE470AB0EE670A5D
:102DF00063496448FDF7C8FF634BD3ED007A634B2A
:102E000093ED007A5F4BD3ED006A5D4B93ED006A62
:102E1000F0EE461AB0EE661AF0EE470AB0EE670A18
:102E2000FEF7AAFB03461A46594B1A60564BD3EDE0
:102E3000007A564B93ED007A524BD3ED006A504B1B
:102E400093ED006AF0EE461AB0EE661AF0EE470A0D
:102E5000B0EE670AFEF720FCF0EE407A4D4BC3ED72
:102E6000007A404B18684B4BD3ED007A4A4A4849E8
:102E7000B0EE670AFEF764FC484B1B78002B12D1BA
:102E8000384B1968424B1A68394B1868282301934C
:102E90001423009303460020FEF706F940494148F9
:102EA00001F04EF913E03C4B1B68D8B22D4B19686A
:102EB000374B1A682E4B1C68282301931423009368
:102EC0002346FEF7F1F83849364801F039F9324B1C
:102ED0001B687B61234B196839612D4B1868F860BA
:102EE000284B1B68184604F063FE05460E46244B2B
:102EF0001B68184604F05CFE80468946224B1B681E
:102F0000184604F055FE82468B46204B1B68184637
:102F100004F04EFEC7E900011E4B1B68184604F082
:102F200047FE03460C46CDE90A3497ED007B8DED54
:102F3000087BCDE906ABCDE90489CDE90256F868F6
:102F400000903B697A691949194805F0A1FC1849B4
:102F5000144801F0F5F800BF1C37BD46BDE8F08FFE
:102F600000040040500B0020900B00200C000020BB
:102F7000600B0020340A0020380A00203C0A0020A0
:102F8000440A0020400A0020840A0020880A002009
:102F90004C0B00208C0A0020800A0020900A0020A0
:102FA000ECC5000800440040F4C50008FCC500085A
:102FB000840B00202DE9F04F9BB010AF0121604839
:102FC00003F008F80346002B00F0B48001215C48B0
:102FD00003F02AF801F0B8FDF0EE407A594BC3ED4A
:102FE000007A594B1B787B62564B1B68184604F0DD
:102FF000DFFD82468B46554B1B68184604F0D8FD12
:10300000C7E90601524B1B68184604F0D1FDC7E919
:103010000401504B1B68184604F0CAFDC7E90201C1
:103020004D4B1B68184604F0C3FDC7E900014B4B2C
:103030001B68184604F0BCFD80468946484B1B6857
:10304000184604F0B5FD05460E46464B1B6818466B
:1030500004F0AEFD03460C46CDE90E34CDE90C5626
:10306000CDE90A8997ED007B8DED087B97ED027B1A
:103070008DED067B97ED047B8DED047B97ED067B54
:103080008DED027BCDE900AB7A6A3749374805F010
:10309000FFFB3649364801F053F82B4B1B780133C0
:1030A000DAB2294B1A70334B1B780133DAB2314B49
:1030B0001A70304B1B780E2B3CD92F4B4FF000026F
:1030C0001A602E4B4FF000021A602D4B4FF0000299
:1030D0001A602C4B4FF000021A602B4B4FF000028D
:1030E0001A60244B0F221A7000210020FDF7A0F96E
:1030F000144B1B68184604F05BFD03460C461A4649
:1031000023462249224805F0C3FB2148FDF712F966
:103110001F4A204B15461C460FCC28606960AA60E8
:10312000EB6023782B7401210020FDF781F918480A
:10313000FDF700F900BF2C37BD46BDE8F08F00BF9A
:1031400000140040200A0020060A00201000002081
:1031500014000020A00A0020180000201C000020FD
:10316000A40A00202000002040C60008280B0020F0
:1031700000480040080000202C0A0020300A0020EF
:10318000340A0020380A00203C0A002084C60008C7
:103190002C0B002098C6000880B500AF4FF480507B
:1031A00002F0CAF80346002B0ED0294A284B5B696F
:1031B00083F0010353614FF4805002F0E1F8254B96
:1031C0001B680133234A13604FF4005002F0B4F837
:1031D0000346002B0ED01E4A1D4B5B6983F0020391
:1031E00053614FF4005002F0CBF81A4B5B68013387
:1031F000184A53604FF4804002F09EF80346002BBB
:103200000ED0134A124B5B6983F0040353614FF4F1
:10321000804002F0B5F80F4B9B6801330D4A936074
:103220004FF4004002F088F80346002B0ED0084A05
:10323000074B5B6983F0080353614FF4004002F0D1
:103240009FF8044BDB680133024AD36000BF80BDA6
:10325000000C0240680A002080B500AF01F046FD76
:10326000012000F0D7F800BF00F0E8F80346002B7B
:10327000FAD000BF5C4B1B685C4AA2FB03239B098E
:103280001846FDF73FFC0346002BF3D101F0AAFCE2
:1032900001F08EFC01F0FEFC00F004FE00F070FE78
:1032A00000F0E0FE01F010F901F09EFA01F0BEFC22
:1032B00001F0EEFB00F064FF01F08AF84C494D4844
:1032C00000F03EFF01F08AF900214B4802F0DAFBE2
:1032D00001F0BCF9444B1B681A464849484805F0C0
:1032E000D7FA4749434800F02BFFFDF717F8454947
:1032F000404800F025FF444B08221A8301213E4834
:1033000002F0C0FB01F032F90121404800F036FD27
:103310000346002B0CD100BF01213C4800F02EFDDC
:103320000346002BF8D06420FDF772FBFEF770FB1C
:103330000221364800F022FD0346002B0CD100BFCD
:103340000221324800F01AFD0346002BF8D0642019
:10335000FDF75EFBFEF770FC04212C4800F00EFD2B
:103360000346002B0CD100BF0421284800F006FDC5
:103370000346002BF8D06420FDF74AFBFEF710FF50
:103380000821224800F0FAFC0346002B12D1204B02
:103390001B78002B0ED100BF08211C4800F0EEFC6A
:1033A0000346002BF8D06420FDF732FB184B0122B6
:1033B0001A7018E00821154800F0E0FC0346002BC5
:1033C000A2D1134B1B78012B9ED100BF08210F48BF
:1033D00000F0D4FC0346002BF8D06420FDF718FB66
:1033E0000B4B00221A708FE734000020D34D62107F
:1033F000ACC600080048004000140040B4C60008F5
:10340000280B0020C4C60008000C0240000802403F
:10341000900A002080B483B000AF0346FB71064BD6
:1034200000221A70044AFB79137000BF0C37BD46A6
:103430005DF8047B704700BF0238024080B582B05F
:1034400000AF00233B600023FB710023BB713120E0
:1034500000F026F90346BB713B6801333B603B68D3
:10346000B3F5A06F02D0BB79002BF0D0312000F073
:1034700017F90346002B02D00123FB7101E0002362
:10348000FB71FB7918460837BD4680BD80B489B012
:1034900000AF78600023BB6100237B610023FB61E8
:1034A00002233B610023FB600223BB60484B9B6807
:1034B00003F00C03BB61BB69042B07D0082B09D0B8
:1034C000002B3FD17B68434A1A603FE07B68424A49
:1034D0001A603BE03E4B5B6803F480039B0DFB608E
:1034E0003B4B5B6803F03F03BB60FB68002B0DD0D8
:1034F000394ABB68B2FBF3F2354B596847F6C073E3
:103500000B409B0903FB02F3FB610CE0314ABB68F3
:10351000B2FBF3F22E4B596847F6C0730B409B0980
:1035200003FB02F3FB612A4B5B6803F440331B0C83
:1035300001335B003B61FA693B69B2FBF3F27B68E4
:103540001A6003E07B68234A1A6000BF204B9B6827
:1035500003F0F003BB61BB691B09BB611F4ABB6978
:1035600013441B78DBB27B617B681A687B69DA40A5
:103570007B685A60164B9B6803F4E053BB61BB69E0
:103580009B0ABB61154ABB6913441B78DBB27B61A4
:103590007B685A687B69DA407B689A600C4B9B6851
:1035A00003F46043BB61BB695B0BBB610B4ABB6946
:1035B00013441B78DBB27B617B685A687B69DA4015
:1035C0007B68DA6000BF2437BD465DF8047B704736
:1035D000003802400024F40000127A002400002089
:1035E00080B483B000AF78600B46FB70FB78002B93
:1035F00006D00A49094B1A6B7B6813430B6306E03C
:103600000649064B1A6B7B68DB4313400B6300BF14
:103610000C37BD465DF8047B704700BF00380240A0
:1036200080B483B000AF78600B46FB70FB78002B52
:1036300006D00A49094B1A6C7B6813430B6406E0F9
:103640000649064B1A6C7B68DB4313400B6400BFD2
:103650000C37BD465DF8047B704700BF0038024060
:1036600080B483B000AF78600B46FB70FB78002B12
:1036700006D00A49094B5A6C7B6813434B6406E039
:103680000649064B5A6C7B68DB4313404B6400BF12
:103690000C37BD465DF8047B704700BF0038024020
:1036A00080B487B000AF0346FB710023FB600023AA
:1036B0007B610023FB74FB795B09DBB2FB60FB6879
:1036C000012B03D1124B1B687B6109E0FB68022BC5
:1036D00003D10F4B1B6F7B6102E00D4B5B6F7B6176
:1036E000FB7903F01F03FB607A69FB6822FA03F39E
:1036F00003F00103002B02D00123FB7401E000233F
:10370000FB74FB7C18461C37BD465DF8047B704794
:103710000038024080B485B000AF78603960002383
:10372000FB600023FB727B685B68FB60FB6823F037
:10373000407323F48073FB603B681B791A023B687B
:103740001B681343FA681343FB607B68FA685A608E
:103750007B689B68FB60FA68184B1340FB603B6812
:103760001A693B68DB681A433B689B681A433B68ED
:103770005B795B001343FA681343FB607B68FA686C
:103780009A607B68DB6AFB60FB6823F47003FB6074
:103790003B681B7D013BDAB2FB7A1343FB72FB7A79
:1037A0001B05FA681343FB607B68FA68DA6200BFA6
:1037B0001437BD465DF8047B704700BFFDF7FFC0BE
:1037C00080B485B000AF78600023FB600E4B5B686F
:1037D000FB60FA680D4B1340FB607B681A687B68DE
:1037E0005B681A437B689B681A437B68DB681343FA
:1037F000FA681343FB60044AFB68536000BF143748
:10380000BD465DF8047B704700230140E030FCFFBB
:1038100080B483B000AF78600B46FB70FB78002B60
:1038200006D07B689B6843F001027B689A6005E0E4
:103830007B689B6823F001027B689A6000BF0C37AD
:10384000BD465DF8047B704780B485B000AF7860FA
:10385000084611461A460346FB700B46BB701346DA
:103860007B700023FB600023BB60FB78092B23D90E
:103870007B68DB68FB60FB78A3F10A0213465B0000
:103880001344072202FA03F3BB60BB68DB43FA6808
:103890001340FB607978FB78A3F10A0213465B00C2
:1038A000134401FA03F3BB60FA68BB681343FB607F
:1038B0007B68FA68DA601EE07B681B69FB60FA7857
:1038C00013465B001344072202FA03F3BB60BB6894
:1038D000DB43FA681340FB607978FA7813465B00A3
:1038E000134401FA03F3BB60FA68BB681343FB603F
:1038F0007B68FA681A61BB78062B21D87B685B6B02
:10390000FB60BB785A1E13469B0013441F2202FA29
:1039100003F3BB60BB68DB43FA681340FB60F978D4
:10392000BB785A1E13469B00134401FA03F3BB6095
:10393000FA68BB681343FB607B68FA685A6347E028
:10394000BB780C2B21D87B681B6BFB60BB78DA1F24
:1039500013469B0013441F2202FA03F3BB60BB68AB
:10396000DB43FA681340FB60F978BB78DA1F134633
:103970009B00134401FA03F3BB60FA68BB6813436E
:10398000FB607B68FA681A6322E07B68DB6AFB6095
:10399000BB78A3F10D0213469B0013441F2202FAC9
:1039A00003F3BB60BB68DB43FA681340FB60F97844
:1039B000BB78A3F10D0213469B00134401FA03F3F5
:1039C000BB60FA68BB681343FB607B68FA68DA6225
:1039D00000BF1437BD465DF8047B704780B483B0E8
:1039E00000AF78607B689B6843F080427B689A6098
:1039F00000BF0C37BD465DF8047B704780B483B0D0
:103A000000AF78600B46FB70FB78002B06D07B681C
:103A10009B6843F480627B689A6005E07B689B68E2
:103A200023F480627B689A6000BF0C37BD465DF866
:103A3000047B704780B483B000AF78607B68DB6C38
:103A40009BB218460C37BD465DF8047B704700BF3B
:103A500080B485B000AF78600B46FB700023FB7329
:103A60007B681A68FB781340002B02D00123FB739C
:103A700001E00023FB73FB7B18461437BD465DF85D
:103A8000047B704780B582B000AF4FF080434FF6A3
:103A9000FE721A82374B1B680133364A1360364B6D
:103AA0001B68002B04D0344B1B68013B324A136067
:103AB000AFF300800023FB7152E0FB792F4A9B009B
:103AC00013445B68002B48D0FB792C4A9B001344BD
:103AD0005B681B7B002B40D0FB79284A9B0013447A
:103AE0005B689B68002B38D0FB79244A9B00134409
:103AF0005B689A68013A9A60FB79204A9B001344FC
:103B00005B689B68002B28D1FB791C4A9B001344FF
:103B10005B681A69FB7919499B000B445B685B6918
:103B200018469047FB79154A9B0013445A68FB7965
:103B300012499B000B445B681B689360FB790F4A3A
:103B40009B0013445B685B68002B06D1FB790B4A32
:103B50009B0013445B6800221A73FB790133FB71ED
:103B6000064B1B78FA799A42A7D300BF0837BD46A7
:103B700080BD00BFB40A0020B80A0020C00A00209F
:103B800080B500AF00F008F8024B01221A7000BFA8
:103B900080BD00BFBC0A002080B58AB000AF3B46A4
:103BA00019464FF0804001F031FD3B469FED280B58
:103BB000184601F0ABFD4FF0804001F033FE0023CA
:103BC000BB840023FB8340F2E7333B62224B1A683D
:103BD000214B19683B68B1FBF3F3204901FB03F368
:103BE000B2FBF3F39BB2013B9BB2BB83002387F88C
:103BF000263007F11C0319464FF0804001F0B6FE55
:103C00004FF080424FF080439B899BB243F0010309
:103C10009BB293811C233B760123FB7600237B76AA
:103C20000023BB7607F11803184601F0B9FB4FF0EB
:103C300080424FF080431B889BB243F001039BB24C
:103C4000138000BF2837BD4680BD00BFAFF30080A2
:103C50000000000080842E413400002040420F000C
:103C600080B487B000AF7860396000237B610023A7
:103C70003B610023FB6000237B6176E001227B69CE
:103C800002FA03F33B613B681A683B691340FB602F
:103C9000FA683B699A4265D17B681A687B695B0068
:103CA000032101FA03F3DB431A407B681A607B6847
:103CB0001A683B681B7919467B695B0001FA03F3BC
:103CC0001A437B681A603B681B79012B03D03B6861
:103CD0001B79022B2ED17B689A687B695B000321DC
:103CE00001FA03F3DB431A407B689A607B689A68A9
:103CF0003B685B7919467B695B0001FA03F31A4361
:103D00007B689A607B685A687B699BB2194601237D
:103D10008B40DB431A407B685A607B685B683A687B
:103D2000927911467A6992B201FA02F292B21A437A
:103D30007B685A607B68DA687B699BB25B00032111
:103D400001FA03F3DB431A407B68DA607B68DA68C8
:103D50003B68DB7919467B695B0001FA03F31A4380
:103D60007B68DA607B6901337B617B690F2B85D9C6
:103D700000BF1C37BD465DF8047B704780B485B03A
:103D800000AF78600B467B800023FB737B681A6969
:103D90007B881340002B02D00123FB7301E000233A
:103DA000FB73FB7B18461437BD465DF8047B7047F8
:103DB00080B483B000AF78600B467B807B687A88E4
:103DC0001A8300BF0C37BD465DF8047B704700BF07
:103DD00080B483B000AF78600B467B807B687A88C4
:103DE0005A8300BF0C37BD465DF8047B704700BFA7
:103DF00080B483B000AF78600B467B807A887B68A4
:103E00005A6100BF0C37BD465DF8047B704700BFA8
:103E100080B485B000AF78600B467B8013467B7022
:103E20000023FB600023BB607A787B8803F00703E4
:103E30009B0002FA03F3FB607B88DB089BB2184609
:103E40007B88DB089BB21A467B68083253F8222035
:103E50007B8803F007039B000F2101FA03F3DB4388
:103E600002EA03017B6800F1080243F822107B8814
:103E7000DB089BB21A467B68083253F82220FB68A5
:103E80001343BB607B88DB089BB21A467B68083211
:103E9000B96843F8221000BF1437BD465DF8047BB3
:103EA000704700BF80B500AF01210120FFF798FBEC
:103EB00001214FF40030FFF7B3FB072202212B480A
:103EC000FFF7A6FF072203212848FFF7A1FF284B91
:103ED00004221A60264B02221A71254B00229A7185
:103EE000234B0122DA71224B02225A7120491F48CA
:103EF000FFF7B6FE1E4B08221A601D4B02221A71F4
:103F00001B491A48FFF7ACFE1A4B4FF4E1321A6016
:103F1000184B00229A80174B0022DA80154B0022A2
:103F20001A81144B00229A81124B0C225A8111499A
:103F30001148FCF79DFB01210F48FCF753FC0122BF
:103F400040F225510C48FCF78FFC0C4B26221A70CE
:103F50000A4B02225A70094B03229A70074B012226
:103F6000DA70064801F01CFA00BF80BD0000024074
:103F7000E00B0020E80B002000440040F80B00207C
:103F800080B500AF01210420FFF72AFB01214FF487
:103F90008020FFF745FB07220A212C48FFF738FF56
:103FA00007220B212948FFF733FF294B4FF480628A
:103FB0001A60274B02221A71254B00229A71244B5A
:103FC0000122DA71224B02225A7121491F48FFF760
:103FD00047FE1F4B4FF400621A601D4B02221A71FC
:103FE0001B491A48FFF73CFE1A4B1B4A1A60194B33
:103FF00000229A80174B0022DA80164B00221A8189
:10400000144B00229A81134B0C225A8111491348F8
:10401000FCF72EFB01211148FCF7E4FB012240F2E2
:1040200025510E48FCF720FC0D4B27221A700C4B33
:1040300002225A700A4B02229A70094B0122DA704E
:10404000074801F0ADF900BF80BD00BF0008024085
:10405000E00B0020E80B002000181500004800408D
:10406000F80B002080B500AF01210420FFF7B8FA5B
:1040700001212020FFF7F4FA082206212B48FFF740
:10408000C7FE082207212948FFF7C2FE284B40221D
:104090001A60274B02221A71254B00229A71244B79
:1040A0000122DA71224B02225A7121491F48FFF77F
:1040B000D7FD1F4B80221A601D4B02221A711C492A
:1040C0001A48FFF7CDFD1B4B4FF4E1321A60194B34
:1040D00000229A80174B0022DA80164B00221A81A8
:1040E000144B00229A81134B0C225A811149124819
:1040F000FCF7BEFA01211048FCF774FB012240F2E4
:1041000025510D48FCF7B0FB0C4B47221A700B4BA6
:1041100002225A70094B01229A70084B0122DA7070
:10412000064801F03DF900BF80BD00BF0008024015
:10413000E00B0020E80B002000140140F80B0020E9
:1041400080B582B000AF7860396010E03B685A1CDF
:104150003A601B789BB219467868FCF763FB00BF96
:1041600040217868FCF7C8FB0346002BF8D03B6879
:104170001B78002BEAD100BF0837BD4680BD00BFC9
:1041800080B500AF01214FF48000FFF749FA01210B
:104190000220FFF725FA1E4B4FF440621A601C4BB9
:1041A00002221A711A4B02225A71194B01229A717A
:1041B000174B0022DA7116491648FFF751FD042209
:1041C0000A211448FFF724FE04220B211148FFF7AF
:1041D0001FFE114B114A1A600F4B00229A800E4BA2
:1041E0004BF6FF72DA800C4B00221A810A4B002238
:1041F0005A81094B4FF480429A810749084800F0E0
:1042000047FE0121064800F005FF00BF80BD00BF4A
:10421000E00B002000040240B00B0020A08601004B
:104220000058004080B584B000AF78600B46FB704A
:104230001346BB7000BF4FF40031786800F0D6FF22
:104240000346002BF7D10121786800F003FF00BF7F
:104250001D49786800F09AFF0346002BF8D0BA7821
:10426000FB781946786800F035FF4FF4FA63FB815C
:10427000BB78002B10D107E0FB89013BFB81FB8958
:10428000002B01D100231BE01049786800F07EFF6D
:104290000346002BF0D012E0BB78012B0FD107E0D2
:1042A000FB89013BFB81FB89002B01D1002307E047
:1042B0000749786800F06AFF0346002BF0D001231D
:1042C00018461037BD4680BD01000300820007007C
:1042D0000200030080B582B000AF78600B46FB702F
:1042E000FB781946786800F033FF00BF054978680D
:1042F00000F04CFF0346002BF8D000BF0837BD4646
:1043000080BD00BF8400070080B584B000AF786036
:104310000121786800F0FCFE00BF0849786800F0D1
:1043200035FF0346002BF8D0786800F021FF0346E4
:10433000FB73FB7B18461037BD4680BD4000030071
:1043400080B584B000AF78600021786800F0E0FEAE
:104350000121786800F09EFE00BF0849786800F0EF
:1043600015FF0346002BF8D0786800F001FF0346E4
:10437000FB73FB7B18461037BD4680BD4000030031
:1043800080B582B000AF78600121786800F082FECD
:1043900000BF0837BD4680BD80B584B000AF7860EF
:1043A0000B46FB700023FB73FB78002219467868EC
:1043B000FFF738FF0346002B01D00123FB73786819
:1043C000FFF7DEFFFB7B18461037BD4680BD00BF00
:1043D00080B500AF3D211348FFF7DEFF03461A46C4
:1043E0001149124804F054FA10491148FFF7A8FE89
:1043F0003D210C48FFF7D0FF0346002B0FD00022D1
:104400003D210848FFF70EFF02210648FFF762FF33
:1044100000210448FFF75EFF0248FFF7B1FF00BF2D
:1044200080BD00BF00580040CCC60008940B00209F
:104430000048004090B585B000AF78603D2121482C
:10444000FFF7AAFF0346002B29D000223D211D487B
:10445000FFF7E8FE03211B48FFF73CFF1948FFF771
:104460008FFF01223D211748FFF7DCFE0023FB737D
:104470000AE0FB7B7A68D4181248FFF745FF034631
:104480002370FB7B0133FB73FB7B042BF1D97B682F
:104490005C1D0C48FFF754FF034623700DE000231A
:1044A000FB7307E0FB7B7A68134400221A70FB7BE6
:1044B0000133FB73FB7B052BF4D900BF1437BD46DA
:1044C00090BD00BF0058004080B500AF0121022020
:1044D000FFF786F801214FF48040FFF7C1F81F4B2A
:1044E00000221A711D4B0122DA711C4B4FF47042ED
:1044F0001A601A491A48FFF7B3FB0C210120FBF799
:1045000043FE0D210120FBF73FFE0E210120FBF7AA
:104510003BFE0F210120FBF737FE124B4FF4704298
:104520001A60104B00221A710E4B0C225A710D4B5F
:1045300001229A710B4800F08DFE0B4B28221A7055
:10454000094B01225A70084B00229A70064B012237
:10455000DA70054800F024FF00BF80BDE00B0020AA
:1045600000040240FC0B0020F80B002080B500AFD7
:1045700001210220FFF754F8154B42F2CF021A80B6
:10458000134B40F2E7325A60114B00221A81104B54
:1045900000225A800E490F4801F0E8F9012201215A
:1045A0000C4801F0F3FC01210A4801F06BFA0A4BB8
:1045B0001D221A70084B01225A70074B02229A7072
:1045C000054B0122DA70044800F0EAFE00BF80BD0E
:1045D000D40B002000040040F80B002080B500AF91
:1045E00001212020FFF71CF8154B42F2CF021A8060
:1045F000134B40F69F725A60114B01221A81104BE7
:1046000000225A800E490F4801F0B0F90122012121
:104610000C4801F0BBFC01210A4801F033FA0A4BB7
:1046200037221A70084B01225A70074B00229A70E9
:10463000054B0122DA70044800F0B2FE00BF80BDD5
:10464000D40B002000140040F80B002080B500AF10
:1046500001210820FEF7C4FF454B4FF470421A6059
:10466000434B02221A71424B00229A71404B0222A4
:104670005A713F493F48FFF7F3FA02220C213D48A7
:10468000FFF7C6FB02220D213A48FFF7C1FB0222C9
:104690000E213848FFF7BCFB02220F213548FFF7F7
:1046A000B7FB01210420FEF7BBFF334B54221A80D5
:1046B000314B4FF47A725A602F4B00225A802E4BA6
:1046C00000221A812C492D4801F050F901212B4874
:1046D00001F0D8F92A4B60221A80294B01225A8016
:1046E000274B00229A60264B00229A8124492348B6
:1046F00001F0E8F90821214801F0D4FB204B012208
:104700005A801F4B00229A601D4B00229A811C493F
:104710001A4801F051FA0821184801F0DFFB184B44
:1047200001225A80164B00229A60154B00229A8172
:104730001349124801F0C8FA0821104801F0ECFBB7
:104740000F4B01225A800E4B00229A600C4B002224
:104750009A810B49094801F03DFB0821074801F007
:10476000F7FB0121054801F06DF900BF80BD00BFD6
:10477000E00B0020000C0240D40B00200008004099
:10478000C00B002080B483B000AF03460A46FB7123
:104790001346BB80BB88B3F57A7F02D94FF47A7396
:1047A000BB80FB79012B03D10E4ABB88536313E016
:1047B000FB79022B03D10B4ABB8893630CE0FB7996
:1047C000032B03D1074ABB88D36305E0FB79042B95
:1047D00002D1044ABB88136400BF0C37BD465DF8A4
:1047E000047B70470008004080B500AF012108201D
:1047F000FEF7F6FE224B4FF470621A60204B012246
:104800001A711F4B00229A711D4B02225A711C4BC8
:104810000022DA711A491B48FFF722FA012104200D
:10482000FEF7DEFE164B4FF440721A60144B012265
:104830001A71134B00229A71114B02225A71104BBC
:104840000022DA710E491048FFF70AFA012101200F
:10485000FEF7C6FE0A4B4FF4A0621A60084B012215
:104860001A71074B00229A71054B02225A71044BB0
:104870000022DA7102490548FFF7F2F900BF80BD56
:10488000E00B0020000C0240000802400000024043
:1048900080B582B000AF0346FB710B46BB71134677
:1048A000BB80FB79012B38D1BB79002B0ED14FF4A3
:1048B00000717448FFF78CFA4FF480717148FFF76C
:1048C00087FA00210120FFF75DFFD7E0BB79012BBC
:1048D0000FD14FF400716B48FFF76AFA4FF4807103
:1048E0006848FFF775FABB8819460120FFF74AFFB1
:1048F000C4E0BB79022B40F0C1804FF400716148E5
:10490000FFF766FA4FF480715E48FFF751FABB88F3
:1049100019460120FFF736FFB0E0FB79022B38D1B2
:10492000BB79002B0ED14FF400615648FFF750FAC7
:104930004FF480615348FFF74BFA00210220FFF744
:1049400021FF9BE0BB79012B0FD14FF400614D4853
:10495000FFF72EFA4FF480614A48FFF739FABB8817
:1049600019460220FFF70EFF88E0BB79022B40F0CA
:1049700085804FF400614348FFF72AFA4FF48061C5
:104980004048FFF715FABB8819460220FFF7FAFEE8
:1049900074E0FB79032B37D1BB79002B0ED14FF498
:1049A00000713948FFF714FA4FF480713648FFF769
:1049B0000FFA00210320FFF7E5FE5FE0BB79012B32
:1049C0000FD14FF400713048FFF7F2F94FF48071C6
:1049D0002D48FFF7FDF9BB8819460320FFF7D2FEEB
:1049E0004CE0BB79022B49D14FF400712648FFF708
:1049F000EFF94FF480712448FFF7DAF9BB881946C4
:104A00000320FFF7BFFE39E0FB79042B36D1BB79D9
:104A1000002B0ED14FF480611C48FFF7D9F94FF4F9
:104A200080711A48FFF7D4F900210420FFF7AAFE8D
:104A300024E0BB79012B0FD14FF480611348FFF7BD
:104A4000B7F94FF480711148FFF7C2F9BB881946D6
:104A50000420FFF797FE11E0BB79022B0ED14FF433
:104A600080610A48FFF7B4F94FF480710748FFF7F7
:104A70009FF9BB8819460420FFF784FE00BF083762
:104A8000BD4680BD000C024000080240000002400C
:104A900080B500AF01210120FEF7A2FD01214FF4F6
:104AA0008070FEF7DDFD234B01221A60214B0322AB
:104AB0001A71204B0022DA711E491F48FFF7D0F807
:104AC0001E4B00221A601D4B00225A601B4B002215
:104AD0009A601A4B4FF47062DA601848FEF770FE65
:104AE000174B00221A60164B00221A71144B002239
:104AF0005A71134B00229A60114B0022DA60104B5E
:104B000000221A610E4B01221A750D490D48FEF75D
:104B100001FE0323012200210A48FEF795FE012130
:104B20000848FEF76BFF01210648FEF771FE00BF43
:104B300080BD00BFE00B002000000240040C0020FC
:104B4000980B00200020014098B500AF1648FEF7F2
:104B500045FF00BF02211448FEF77AFF0346002BF1
:104B6000F8D01148FEF766FF0346184603F00EF82A
:104B70000BA3D3E9002303F06FF803460C46184655
:104B8000214603F061FB06EE900ADFED087A86EE1F
:104B9000A77AF0EE477AB0EE670A98BDAFF30080CF
:104BA0008FC2F5285CCF32400020014000008045D4
:104BB00080B500AF01210420FEF712FD074B0F2244
:104BC0001A60064B00221A71044B0122DA71034964
:104BD0000348FFF745F800BF80BD00BFE00B002091
:104BE0000008024080B500AF01210820FEF7F8FC64
:104BF0000C4B0F221A600B4B01221A71094B002239
:104C00009A71084B02225A71064B0022DA7105494B
:104C10000548FFF725F8FF210348FFF7E9F800BF33
:104C200080BD00BFE00B0020000C024080B500AF4B
:104C300001211020FEF7D4FC144B4FF47F421A6080
:104C4000124B01221A71114B00229A710F4B022252
:104C50005A710E4B0022DA710C490D48FFF700F82B
:104C6000FEF78EFF02211020FBF7F0FAFBF756FB50
:104C70004FF480610648FFF7ABF8054B4FF48072A4
:104C80001A83FBF7BFFB00BF80BD00BFE00B002015
:104C90000010024080B500AF01210820FEF7A0FC03
:104CA000104B50221A600F4B01221A710D4B00223B
:104CB0009A710C4B02225A710A4B0022DA7109498F
:104CC0000948FEF7CDFF074BA0221A60054B0022D2
:104CD0001A71044B0122DA7102490348FEF7C0FF42
:104CE00000BF80BDE00B0020000C024080B500AF8B
:104CF000164A164BD3F8883043F47003C2F8883054
:104D0000134A134B1B6843F001031360104B00223E
:104D10009A600F4A0E4B1B6823F0847323F4803390
:104D200013600B4B0B4A5A60094A094B1B6823F46A
:104D300080231360064B0022DA6000F00DF8034B6D
:104D40004FF000629A6000BF80BD00BF00ED00E040
:104D5000003802401030002480B483B000AF00233C
:104D60007B6000233B60364A354B1B6843F480333D
:104D70001360334B1B6803F400333B607B680133E3
:104D80007B603B68002B03D17B68B3F5A06FF0D14B
:104D90002B4B1B6803F40033002B02D001233B6034
:104DA00001E000233B603B68012B42D1244A244BA5
:104DB0001B6C43F080531364224A224B1B6843F45C
:104DC000804313601E4A1E4B9B6893601C4A1C4B19
:104DD0009B6843F400439360194A194B9B6843F462
:104DE000A0539360164B184A5A60154A144B1B681F
:104DF00043F08073136000BF114B1B6803F0007316
:104E0000002BF9D0114B40F205621A600C4A0C4B92
:104E10009B6823F003039360094A094B9B6843F0A6
:104E20000203936000BF064B9B6803F00C03082B42
:104E3000F9D100BF0C37BD465DF8047B704700BF59
:104E4000003802400070004008544008003C024016
:104E500080B485B000AF78600B4B1B68002B02D18B
:104E6000094B0A4A1A60084B1B68FB60064B1A681C
:104E70007B681344044A1360FB6818461437BD4628
:104E80005DF8047B704700BFD80A0020180C002092
:104E900080B58AB000AF786039600023FB840023BE
:104EA0007B840423BB84574BFB617B689B88FB841A
:104EB000FB8C23F03F03FB8407F10C031846FEF73D
:104EC000E5FA7B69FB61FB694F4AA2FB03239B0C5C
:104ED0007B84FA8C7B8C1343FB847B68FA8C9A80EE
:104EE0007B681B889BB223F001039AB27B681A800F
:104EF0000023FB843B681B68444A934215D83B68F7
:104F00001B685B00FA69B2FBF3F3BB84BB8C032B19
:104F100001D80423BB84FA8CBB8C1343FB847B8CA9
:104F200001339AB27B681A8440E03B68DB884BF619
:104F3000FF72934209D13B681A6813465B00134421
:104F4000FA69B2FBF3F3BB840EE03B681A681346C0
:104F50009B0013449A001344FA69B2FBF3F3BB8439
:104F6000BB8C43F48043BB84BB8CC3F30B03002B8B
:104F700003D1BB8C43F00103BB84BA8CFB8C13437D
:104F80009BB26FEA43436FEA5343FB847B8C4FF43D
:104F9000967202FB03F31E4A82FB03129211DB1787
:104FA000D31A9BB201339AB27B681A847B68FA8C5D
:104FB0009A837B681B889BB243F001039AB27B689B
:104FC0001A807B681B88FB84FB8C23F4816323F0AD
:104FD0000203FB843B689A883B685B8913439AB25F
:104FE000FB8C1343FB847B68FA8C1A803B689A899C
:104FF0003B681B8913439AB27B681A8100BF28372C
:10500000BD4680BD00127A0083DE1B43A0860100EE
:10501000D34D621080B483B000AF78600B46FB7054
:10502000FB78002B08D07B681B889BB243F0010300
:105030009AB27B681A8007E07B681B889BB223F0DA
:1050400001039AB27B681A8000BF0C37BD465DF839
:10505000047B704780B483B000AF78600B46FB7070
:10506000FB78002B08D07B681B889BB243F48073CD
:105070009AB27B681A8007E07B681B889BB223F496
:1050800080739AB27B681A8000BF0C37BD465DF80A
:10509000047B704780B483B000AF78600B46FB7030
:1050A000FB78002B08D07B681B889BB243F400730D
:1050B0009AB27B681A8007E07B681B889BB223F456
:1050C00000739AB27B681A8000BF0C37BD465DF84A
:1050D000047B704780B483B000AF78600B46FB70F0
:1050E0001346BB70BB78002B04D0FB7843F0010360
:1050F000FB7003E0FB7823F00103FB70FB789AB2AE
:105100007B681A8200BF0C37BD465DF8047B704790
:1051100080B483B000AF78600B46FB70FB78002B47
:1051200008D07B681B889BB243F480639AB27B688B
:105130001A8007E07B681B889BB223F480639AB2D5
:105140007B681A8000BF0C37BD465DF8047B704752
:1051500080B483B000AF78600B46FB70FB789AB2E6
:105160007B681A8200BF0C37BD465DF8047B704730
:1051700080B483B000AF78607B681B8A9BB2DBB2DF
:1051800018460C37BD465DF8047B704780B487B085
:1051900000AF7860396000233B610023FB6000238F
:1051A000BB600023FB757B689B8A9BB2FB607B68BE
:1051B0001B8B9BB2BB60BB681B04BB60FA68BB68FF
:1051C000134323F07F433B613A693B681A403B68D5
:1051D0009A4202D10123FB7501E00023FB75FB7DA0
:1051E00018461C37BD465DF8047B704780B487B015
:1051F00000AF786039600023FB7500233B6100231A
:10520000FB607B68FB603B681B0F3B613B6823F0E6
:105210007F433B603B69002B03D0FB681433FB608A
:1052200005E03B681B0C3B60FB681833FB60FB68C8
:105230001A683B681340002B02D00123FB7501E084
:105240000023FB75FB7D18461C37BD465DF8047BCB
:10525000704700BF80B485B000AF78600023FB606A
:10526000344BFB607B689B79002B4FD03149314B2D
:105270001A687B681B68DB4313400B602D492D4B7C
:105280005A687B681B68DB4313404B607B681B7963
:105290001A46FB681344FB60FB68FA6811687A6879
:1052A00012680A431A602349224B9A687B681B687C
:1052B000DB4313408B601F491E4BDA687B681B6819
:1052C000DB431340CB607B685B79102B0ED119490F
:1052D000184B9A687B681B6813438B601549154B04
:1052E000DA687B681B681343CB601DE0114BFB60E1
:1052F0007B685B791A46FB681344FB60FB68FA68BD
:1053000011687A6812680A431A600DE07B681B799D
:105310001A46FB681344FB60FB68FA6811687A68F8
:105320001268D2430A401A6000BF1437BD465DF8C8
:10533000047B7047003C014080B485B000AF7860CA
:105340000023FB730023BB600C4B1A687B6813407F
:10535000BB600A4B5A697B681340002B05D0BB68C1
:10536000002B02D00123FB7301E00023FB73FB7BC6
:1053700018461437BD465DF8047B7047003C014079
:1053800080B483B000AF7860044A7B68536100BF8B
:105390000C37BD465DF8047B704700BF003C014000
:1053A00080B485B000AF78600023FB730023BB732B
:1053B0000F237B737B68DB78002B38D0274BDB68AF
:1053C000DB4303F4E0631B0AFB73FB7BC3F10403C1
:1053D000BB737A7BFB7B42FA03F37B737B685B785E
:1053E0001A46BB7B02FA03F3FB737B689A787B7BDC
:1053F0001340DAB2FB7B1343FB73FB7B1B01FB7394
:10540000174A7B681B781344FA7B83F80023144AFD
:105410007B681B785B09DBB218467B681B7803F05E
:105420001F03012101FA03F342F820300FE00C4979
:105430007B681B785B09DBB218467B681B7803F03E
:105440001F0301229A4000F1200341F8232000BFEE
:105450001437BD465DF8047B704700BF00ED00E0E7
:1054600000E100E080B584B002AF786008461146E4
:105470001A4603467B800B467B7013463B707B8845
:10548000002B0ED0786800F023F838787A78798885
:105490003B7D01933B7C00930346786800F030F835
:1054A00000E000BF0837BD4680BD00BF80B483B0B8
:1054B00000AF78607B6803F13F4303F57E039B0AEE
:1054C0009BB218460C37BD465DF8047B704700BFA1
:1054D00080B582B000AF78607868FFF7E7FF0346D9
:1054E0001A46012303FA02F1044A044B1B6B0B43D7
:1054F000136300BF0837BD4680BD00BF00380240BF
:1055000080B584B000AF7860084611461A4603465D
:105510007B800B467B7013463B707868FFF7C6FFB5
:105520000346BB730023FB7367E07A88FB7B42FA78
:1055300003F303F00103002B5BD0BB7BBA7B324942
:1055400031F8122011B2FA7B012000FA02F212B2F5
:105550000A4312B291B22C4A22F813107B68DB681E
:10556000FA7B5200032101FA02F2D2431340397E42
:10557000FA7B520001FA02F21A437B68DA607B6818
:105580001A68FB7B5B00032101FA03F3DB43134042
:105590007978FA7B520001FA02F21A437B681A60AA
:1055A0007B78012B02D07B78022B23D17B685B6850
:1055B000FA7B012101FA02F292B2D2431340397808
:1055C000FA7B01FA02F292B21A437B685A607B6856
:1055D0009A68FB7B5B00032101FA03F3DB43134072
:1055E000397FFA7B520001FA02F21A437B689A6013
:1055F00000E000BFFB7B0133FB73FB7B0F2B94D9D7
:1056000000BF1037BD4680BDDC0A002080B586B0E3
:1056100000AF7860396007F108031846FDF736FFE0
:105620003B684FF6FF729A607B68B3F1804F03D0FE
:105630007B68294A934208D17A693B681A603B68C3
:105640004FF0FF325A60002342E07B68234A9342C6
:105650000FD07B68224A93420BD07B68214A934249
:1056600007D07B68204A934203D07B681F4A93424D
:1056700008D1FA683B681A603B684FF6FF725A60BF
:10568000002325E07B681A4A934217D07B68194AA9
:10569000934213D07B68184A93420FD07B68174A15
:1056A00093420BD07B68164A934207D07B68154A19
:1056B000934203D07B68144A934208D17A693B68CD
:1056C0001A603B684FF6FF725A60002300E0022325
:1056D00018461837BD4680BD000C00400000014050
:1056E00000040140004001400044014000480140E6
:1056F000000400400008004000100040001400407A
:1057000000180040001C00400020004090B585B00B
:1057100000AFF86087ED000BFB681B68184602F0CD
:1057200025FAD7E9002302F009FD0346002B0AD031
:10573000FB6800221A61FB680022DA60FB68002225
:105740005A61032369E04FF000024FF00003D7E9EC
:10575000000102F0E9FC0346002B0AD0FB6800229E
:105760001A61FB680022DA60FB6800225A61042398
:1057700053E0FB685B68B3F5803F04D2FB685B686D
:105780005A1CFB685A60FB6800221A61FB681A68A1
:10579000FB681B690133B2FBF3F2FB68DA60FB685C
:1057A000DB68184602F0E2F9D7E9002302F07EFB3D
:1057B00003460C461846214602F026FD0246FB68C9
:1057C000DA60FB681B695A1CFB681A61FB68DA68BF
:1057D000FB685B689A4206D9FB681A69FB689B689C
:1057E00001339A42D2D9FB681A69FB689B6801337E
:1057F0009A420AD9FB6800221A61FB680022DA602B
:10580000FB6800225A61042307E0D7E9000102F097
:10581000FBFC0246FB685A61002318461437BD465C
:1058200090BD00BF80B582B000AF78607B68424A0F
:10583000934204D101210120FDF712FF77E07B683C
:10584000B3F1804F04D101210120FDF7E9FE6EE0A4
:105850007B683A4A934204D101210220FDF7E0FE21
:1058600065E07B68364A934204D101210420FDF7AC
:10587000D7FE5CE07B68334A934204D101210820C3
:10588000FDF7CEFE53E07B682F4A934204D10121FD
:105890001020FDF7C5FE4AE07B682C4A934204D1F4
:1058A00001212020FDF7BCFE41E07B68284A93429D
:1058B00004D101210220FDF7D3FE38E07B68254AA0
:1058C000934205D101214FF48030FDF7C9FE2EE04F
:1058D0007B68214A934205D101214FF40030FDF746
:1058E000BFFE24E07B681D4A934205D101214FF49D
:1058F0008020FDF7B5FE1AE07B68194A934204D177
:1059000001214020FDF78CFE11E07B68154A93428F
:1059100004D101218020FDF783FE08E07B68124A54
:10592000934204D101214FF48070FDF779FE0023EA
:1059300018460837BD4680BD000001400004004005
:1059400000080040000C004000100040001400401F
:105950000004014000400140004401400048014073
:1059600000180040001C00400020004080B485B0BA
:1059700000AF786039600023FB817B681B88FB8166
:105980007B68294A934213D07B68284A93420FD000
:105990007B68B3F1804F0BD07B68254A934207D0D8
:1059A0007B68244A934203D07B68234A934208D100
:1059B000FB8923F07003FB813B685A88FB89134302
:1059C000FB817B681D4A93420CD07B681C4A934242
:1059D00008D0FB8923F44073FB813B681A89FB895B
:1059E0001343FB817B68FA891A803B685A687B689D
:1059F000DA623B681A887B681A857B680A4A934298
:105A000003D07B68094A934204D13B689B7A9AB2DF
:105A10007B681A867B6801229A8200BF1437BD46D4
:105A20005DF8047B704700BF0000014000040140A6
:105A30000004004000080040000C0040001000403E
:105A40000014004080B483B000AF78600B46FB7058
:105A5000FB78002B08D07B681B889BB243F0800347
:105A60009AB27B681A8007E07B681B889BB223F0A0
:105A700080039AB27B681A8000BF0C37BD465DF880
:105A8000047B704780B483B000AF78600B46FB7036
:105A9000FB78002B08D07B681B889BB243F0010386
:105AA0009AB27B681A8007E07B681B889BB223F060
:105AB00001039AB27B681A8000BF0C37BD465DF8BF
:105AC000047B704780B485B000AF786039600023F4
:105AD0007B810023FB810023BB817B681B8C9BB2F5
